:100000000C9435000C945D000C945D000C945D0024
:100010000C945D000C945D000C945D000C945D00EC
:100020000C945D000C945D000C945D000C945D00DC
:100030000C945D000C945D000C945D000C945D00CC
:100040000C94BD010C945D000C942D020C940702DD
:100050000C945D000C945D000C945D000C945D00AC
:100060000C945D000C945D003B0311241FBECFEF88
:10007000D8E0DEBFCDBF11E0A0E0B1E0E4E3F7E0FF
:1000800002C005900D92AC32B107D9F721E0ACE285
:10009000B1E001C01D92A23DB207E1F710E0C5E357
:1000A000D0E004C02197FE010E949203C433D1071F
:1000B000C9F70E945F020C9498030C940000AF9261
:1000C000BF92CF92DF92EF92FF920F931F93CF9345
:1000D000DF936C017B018B01040F151FEB015E01A7
:1000E000AE18BF08C017D10759F06991D601ED913C
:1000F000FC910190F081E02DC6010995892B79F7DB
:10010000C501DF91CF911F910F91FF90EF90DF908C
:10011000CF90BF90AF900895FC01538D448D252F53
:1001200030E0842F90E0821B930B541710F0CF9691
:10013000089501970895FC01918D828D981761F0C3
:10014000A28DAE0FBF2FB11D5D968C91928D9F5FDA
:100150009F73928F90E008958FEF9FEF0895FC01B9
:10016000918D828D981731F0828DE80FF11D858D6C
:1001700090E008958FEF9FEF0895FC01918D228DFF
:10018000892F90E0805C9F4F821B91098F73992784
:10019000089585E391E00E94BD0021E0892B09F4D8
:1001A00020E0822F089580E090E0892B29F00E94C2
:1001B000C90081110C9400000895FC01A48DA80FC2
:1001C000B92FB11DA35ABF4F2C91848D90E0019699
:1001D0008F739927848FA689B7892C93A089B189B9
:1001E0008C91837080648C93938D848D981306C05A
:1001F0000288F389E02D80818F7D80830895EF92BE
:10020000FF920F931F93CF93DF93EC0181E0888FD0
:100210009B8D8C8D98131AC0E889F989808185FFA0
:1002200015C09FB7F894EE89FF896083E889F98942
:1002300080818370806480839FBF81E090E0DF9144
:10024000CF911F910F91FF90EF900895F62E0B8D97
:1002500010E00F5F1F4F0F731127E02E8C8D8E1152
:100260000CC00FB607FCFACFE889F989808185FFB9
:10027000F5CFCE010E94DD00F1CFEB8DEC0FFD2F0D
:10028000F11DE35AFF4FF0829FB7F8940B8FEA8974
:10029000FB8980818062CFCFCF93DF93EC01888D83
:1002A0008823B9F0AA89BB89E889F9898C9185FDF1
:1002B00003C0808186FD0DC00FB607FCF7CF8C917F
:1002C00085FFF2CF808185FFEDCFCE010E94DD005A
:1002D000E9CFDF91CF910895FC0101900020E9F76B
:1002E0003197AF01481B590BBC0185E391E00C9499
:1002F0005F008F929F92AF92BF920F931F93CF9305
:10030000DF93CDB7DEB7A1970FB6F894DEBF0FBE6F
:10031000CDBF19A2423008F44AE08E010F5D1F4F95
:10032000842E912CB12CA12CA50194010E94700364
:10033000E62FB901CA01EA30F4F4E05DD801EE938A
:100340008D01232B242B252B79F790E080E010974B
:1003500019F0CD010E946C01A1960FB6F894DEBF92
:100360000FBECDBFDF91CF911F910F91BF90AF9086
:100370009F908F900895E95CE1CF1F920F920FB686
:100380000F9211242F933F938F939F93AF93BF931B
:100390008091310190913201A0913301B0913401EB
:1003A0003091300123E0230F2D3758F50196A11D20
:1003B000B11D209330018093310190933201A093BD
:1003C0003301B093340180912C0190912D01A091C3
:1003D0002E01B0912F010196A11DB11D80932C011A
:1003E00090932D01A0932E01B0932F01BF91AF9157
:1003F0009F918F913F912F910F900FBE0F901F9063
:10040000189526E8230F0296A11DB11DD2CF1F9289
:100410000F920FB60F9211242F933F934F935F9338
:100420006F937F938F939F93AF93BF93EF93FF93BC
:1004300085E391E00E94DD00FF91EF91BF91AF91C4
:100440009F918F917F916F915F914F913F912F91EC
:100450000F900FBE0F901F9018951F920F920FB61E
:100460000F9211242F938F939F93EF93FF93E0911B
:100470004501F09146018081E0914B01F0914C01E2
:1004800082FD1BC0908180914E018F5F8F73209100
:100490004F01821741F0E0914E01F0E0EB5CFE4F1E
:1004A000958F80934E01FF91EF919F918F912F91A6
:1004B0000F900FBE0F901F9018958081F4CF789405
:1004C00084B5826084BD84B5816084BD85B5826059
:1004D00085BD85B5816085BD80916E00816080930A
:1004E0006E00109281008091810082608093810073
:1004F0008091810081608093810080918000816083
:10050000809380008091B10084608093B1008091DD
:10051000B00081608093B00080917A008460809305
:100520007A0080917A00826080937A0080917A00CC
:10053000816080937A0080917A00806880937A004D
:100540001092C10082E191E00E946C0188E191E08B
:100550000E946C01E0914501F091460182E08083A8
:10056000E0914101F09142011082E0914301F0914C
:1005700044018FEC808310924D01E0914901F0918C
:100580004A0186E08083E0914701F0914801808133
:1005900080618083E0914701F0914801808188600B
:1005A0008083E0914701F0914801808180688083D9
:1005B000E0914701F091480180818F7D8083C12CBB
:1005C000D12C76014AE0C701B6010E9479018BE186
:1005D00091E00E946C01C6010E946803682F70E0E0
:1005E00090E080E04AE00E94790188E191E00E9479
:1005F0006C018FEFC81AD80AE80AF80AC11484E01F
:10060000D806E104F104F1F687E291E00E946C0162
:1006100088E191E00E946C0185E391E00E944C0129
:10062000E0914701F091480180818F7E8083E091C5
:100630004701F09148018081877F8083E0914701E5
:10064000F091480180818F778083E0914701F0919C
:10065000480180818F7D808380914F0180934E017E
:10066000C0E0D0E02097F1F30E94C9008823D1F3C5
:100670000E940000F7CFE5E3F1E01382128288EEDA
:1006800093E0A0E0B0E084839583A683B78384E001
:1006900091E09183808385EC90E09587848784EC5A
:1006A00090E09787868780EC90E0918B808B81EC3F
:1006B00090E0938B828B82EC90E0958B848B86EC20
:1006C00090E0978B868B118E128E138E148E089568
:1006D000F999FECF92BD81BDF89A992780B508950A
:1006E000A1E21A2EAA1BBB1BFD010DC0AA1FBB1F36
:1006F000EE1FFF1FA217B307E407F50720F0A21BA8
:10070000B30BE40BF50B661F771F881F991F1A9414
:1007100069F760957095809590959B01AC01BD013E
:10072000CF010895EE0FFF1F0590F491E02D09947D
:04073000F894FFCF6B
:1007340000000000FF005F008C004C01BD009B0026
:10074400AF007374617274000D0A007468206279DA
:0C07540074652069732000646F6E6500FE
:00000001FF
