:100000000C9415020C943D020C943D020C943D029C
:100010000C943D020C943D020C943D020C943D0264
:100020000C943D020C943D020C943D020C943D0254
:100030000C943D020C943D020C943D020C943D0244
:100040000C94A9090C943D020C94190A0C94F30920
:100050000C943D020C943D020C943D020C943D0224
:100060000C943D020C943D0253595354454D204885
:10007000414C5445443A20436865636B20636F6E7E
:100080006E656374696F6E732E005741524E494E10
:10009000473A20436F6D6D756E69636174696F6E69
:1000A000206661696C7572652C20697320746865BF
:1000B000204D4652433532322070726F7065726C3B
:1000C0007920636F6E6E65637465643F00202875E8
:1000D0006E6B6E6F776E292C70726F6261626C79D5
:1000E0002061206368696E65736520636C6F6E655F
:1000F0003F00203D2076322E3000203D2076312EEC
:1001000030004D46524335323220536F667477616A
:1001100072652056657273696F6E3A2030780053AD
:1001200063616E2061205049434320746F20414435
:1001300044206F722052454D4F564520746F204524
:100140004550524F4D002D2D2D2D2D2D2D2D2D2D6A
:100150002D2D2D2D2D2D2D2D2D2D2D2D2D2D2D2DCF
:100160002D2D2D00504943432052656D6F766564F7
:1001700021005363616E2061205049434320746F16
:1001800020414444206F722052454D4F5645207403
:100190006F20454550524F4D002D2D2D2D2D2D2DCD
:1001A0002D2D2D2D2D2D2D2D2D2D2D2D2D2D2D2D7F
:1001B0002D2D2D2D2D2D0050494343204164646584
:1001C0006421004163636573732044656E696564EF
:1001D0002100596F75207368616C6C206E6F7420FC
:1001E0007061737300416363657373204772616E5E
:1001F000746564210057656C636F6D652C20596FC1
:1002000075207368616C6C2070617373002D2D2DE7
:100210002D2D2D2D2D2D2D2D2D2D2D2D2D2D2D2D0E
:100220002D2D2D2D2D2D2D2D2D2D005363616E2067
:100230004D61737465722043617264206167616906
:100240006E20746F20457869742050726F677261F8
:100250006D204D6F6465005363616E2061205049CD
:10026000434320746F20414444206F722052454D17
:100270004F564520746F20454550524F4D00207217
:1002800065636F7264287329206F6E204545505254
:100290004F4D00492068617665200048656C6C6FA1
:1002A000204D6173746572202D20456E74657265F2
:1002B000642050726F6772616D204D6F64650053EA
:1002C00063616E2061205049434320746F20414494
:1002D00044206F722052454D4F564520746F204583
:1002E0004550524F4D002D2D2D2D2D2D2D2D2D2DC9
:1002F0002D2D2D2D2D2D2D2D2D2D2D2D2D2D2D2D2E
:100300002D2D2D0050494343204164646564210034
:100310004920646F206E6F74206B6E6F7720746855
:10032000697320504943432C20616464696E672ED1
:100330002E2E005363616E20612050494343207488
:100340006F20414444206F722052454D4F56452046
:10035000746F20454550524F4D0050494343205241
:10036000454D4F564544210049206B6E6F772074F0
:1003700068697320504943432C2072656D6F76691C
:100380006E672E2E2E002D2D2D2D2D2D2D2D2D2D4C
:100390002D2D2D2D2D2D2D2D2D2D2D2D2D2D2D2D8D
:1003A0002D2D2D0045786974696E672050726F6736
:1003B00072616D204D6F6465004D617374657220CC
:1003C00043617264205363616E6E656400000000D7
:1003D00000240027002A0000000000250028002B30
:1003E0000000000000230026002900040404040487
:1003F00004040402020202020203030303030301D2
:1004000002040810204080010204081020010204A8
:10041000081020000000080002010000030407008B
:1004200000000000000000004B0A11241FBECFEFA7
:10043000D8E0DEBFCDBF11E0A0E0B1E0E6E5FBE132
:1004400002C005900D92A839B107D9F722E0A8E9BA
:10045000B1E001C01D92AC35B207E1F712E0C5E191
:10046000D2E004C02197FE010E94A30DC431D10740
:10047000C9F70E94880A0C94A90D0C9400008CBD49
:100480009DBD0895833081F028F4813099F0823049
:10049000A9F008958730A9F08830C9F08430B1F40C
:1004A000809180008F7D03C0809180008F77809342
:1004B0008000089584B58F7784BD089584B58F7DBD
:1004C000FBCF8091B0008F778093B000089580912A
:1004D000B0008F7DF9CFCF93DF93282F30E0F90163
:1004E000ED5EFB4F8491F901E150FC4FD491F9018D
:1004F000E551FC4FC491CC23A1F081110E9442022E
:10050000EC2FF0E0EE0FFF1FEF51FC4FA591B491DF
:10051000EC91ED2381E090E009F480E0DF91CF9150
:10052000089580E090E0FACF1F93CF93DF93282FB8
:1005300030E0F901ED5EFB4F8491F901E150FC4F91
:10054000D491F901E551FC4FC491CC23A9F0162FA9
:1005500081110E944202EC2FF0E0EE0FFF1FE952E2
:10056000FC4FA591B4918FB7F894EC91111108C08C
:10057000D095DE23DC938FBFDF91CF911F9108953B
:10058000DE2BF8CFCF93DF9390E0FC01E150FC4FDE
:10059000249185519C4FFC0184918823D1F090E0F7
:1005A000880F991FFC01E353FC4FA591B491FC0106
:1005B000E952FC4FC591D49161110EC09FB7F894D8
:1005C0008C91E22FE0958E238C932881E223E8839F
:1005D0009FBFDF91CF9108958FB7F894EC91E22BF4
:1005E000EC938FBFF6CF3FB7F8948091A50190911F
:1005F000A601A091A701B091A80126B5A89B05C0AE
:100600002F3F19F00196A11DB11D3FBFBA2FA92F91
:10061000982F8827BC01CD01620F711D811D911D8E
:1006200042E0660F771F881F991F4A95D1F70895FA
:100630008F929F92AF92BF92CF92DF92EF92FF92F2
:100640004B015C010E94F3026B017C010E94F302EA
:100650006C197D098E099F09683E734081059105DB
:10066000A8F321E0821A9108A108B10888EEC80E0B
:1006700083E0D81EE11CF11C81149104A104B10493
:1006800029F7FF90EF90DF90CF90BF90AF909F90B1
:100690008F9008952FB7F8946091A1017091A201F5
:1006A0008091A3019091A4012FBF0895AF92BF92B2
:1006B000CF92DF92EF92FF920F931F93CF93DF932E
:1006C0006C017B018B01040F151FEB015E01AE185D
:1006D000BF08C017D10759F06991D601ED91FC917F
:1006E0000190F081E02DC6010995892B79F7C501AC
:1006F000DF91CF911F910F91FF90EF90DF90CF90FE
:10070000BF90AF900895FC01538D448D252F30E0AC
:10071000842F90E0821B930B541710F0CF9608950E
:1007200001970895FC01918D828D981761F0A28D3B
:10073000AE0FBF2FB11D5D968C91928D9F5F9F7301
:10074000928F90E008958FEF9FEF0895FC01918DB7
:10075000828D981731F0828DE80FF11D858D90E024
:1007600008958FEF9FEF0895FC01918D228D892FC1
:1007700090E0805C9F4F821B91098F7399270895A9
:100780008DEA91E00E94B40321E0892B09F420E076
:10079000822F089580E090E0892B29F00E94C00309
:1007A00081110C9400000895FC01A48DA80FB92FAD
:1007B000B11DA35ABF4F2C91848D90E001968F7389
:1007C0009927848FA689B7892C93A089B1898C91A8
:1007D000837080648C93938D848D981306C00288F7
:1007E000F389E02D80818F7D80830895EF92FF92C1
:1007F0000F931F93CF93DF93EC0181E0888F9B8D44
:100800008C8D98131AC0E889F989808185FF15C0FD
:100810009FB7F894EE89FF896083E889F989808120
:100820008370806480839FBF81E090E0DF91CF91EF
:100830001F910F91FF90EF900895F62E0B8D10E011
:100840000F5F1F4F0F731127E02E8C8D8E110CC080
:100850000FB607FCFACFE889F989808185FFF5CFCB
:10086000CE010E94D403F1CFEB8DEC0FFD2FF11DD3
:10087000E35AFF4FF0829FB7F8940B8FEA89FB8908
:1008800080818062CFCF0F931F93CF93DF938C0132
:10089000D0E0C0E0F801EC0FFD1F6491662341F049
:1008A0008DEA91E00E94F603892B11F02196F2CF98
:1008B000CE01DF91CF911F910F910895CF93DF93D8
:1008C000EC01888D8823B9F0AA89BB89E889F98968
:1008D0008C9185FD03C0808186FD0DC00FB607FC9D
:1008E000F7CF8C9185FFF2CF808185FFEDCFCE01D0
:1008F0000E94D403E9CFDF91CF910895BC016E5FD0
:100900007F4FDC01ED91FC910190F081E02D40E002
:10091000099591E0811190E0892F089508958EBD89
:1009200000000DB407FEFDCF8EB50895DF92EF9263
:10093000FF920F931F93CF93DF937C01062FD42E4A
:10094000152F80E590E00E943F0260E0F701868568
:100950000E94940282E10E948F04CD2DD12F0C0FB2
:100960001D2F111DC017D10721F089910E948F04FE
:10097000F9CF61E0F7018685DF91CF911F910F914B
:10098000FF90EF90DF900C9494021F93CF93DF932E
:10099000EC01162F80E590E00E943F0260E08E851A
:1009A0000E949402812F80680E948F0480E00E9440
:1009B0008F04182F61E08E850E949402812FDF91B1
:1009C000CF911F9108950F931F93CF93DF93EC0165
:1009D000062F142F80E590E00E943F0260E08E8594
:1009E0000E949402802F0E948F04812F0E948F0406
:1009F00061E08E85DF91CF911F910F910C9494024D
:100A0000CF92DF92EF92FF920F931F93CF93DF93DA
:100A1000EC016B01F42E890140E062E00E94E304E6
:100A200044E06AE0CE010E94E30440E864E1CE01C4
:100A30000E94E304A6016F2DCE010E94960443E0BC
:100A400062E0CE010E94E3040E944A036B017C0134
:100A500029E5C20ED11CE11CF11C6AE0CE010E9406
:100A6000C50482FF1BC040E062E0CE010E94E304A7
:100A700064E4CE010E94C504F801808362E4CE01E3
:100A80000E94C504F801818380E0DF91CF911F911E
:100A90000F91FF90EF90DF90CF9008950E944A034E
:100AA0006C157D058E059F05C0F283E0EECF2F9279
:100AB0003F924F925F926F927F928F929F92AF92EE
:100AC000CF92DF92EF92FF920F931F93CF93DF931A
:100AD00000D0CDB7DEB74C012B01D42E390180E018
:100AE000E114F10411F0F70180813C2C329490EF75
:100AF0003922380E40E062E0C4010E94E3044FE76F
:100B000068E0C4010E94E30440E864E1C4010E947B
:100B1000E304A2016D2DC4010E949604432D6AE1F5
:100B2000C4010E94E3044CE062E0C4010E94E304BB
:100B30006AE1C4010E94C504482F40686AE1C4010B
:100B40000E94E3040E944A031B012C01F4E22F0ED1
:100B5000311C411C511C68E0C4010E94C504982F3F
:100B6000907309F0B7C080FF15C083E00F900F901D
:100B7000DF91CF911F910F91FF90EF90DF90CF9079
:100B8000AF909F908F907F906F905F904F903F902D
:100B90002F9008950E944A036215730584059505F8
:100BA000D0F2E3CF6114710409F469C00115110595
:100BB00009F465C064E1C4010E94C504382EF8013F
:100BC0008081831508F480C030823320E1F180E514
:100BD00090E00E943F0260E0F40186850E9494024A
:100BE0003A9482E90E948F04CC20B1F08FEF90E01C
:100BF0009C0102C0220F331FCA94E2F7690182E907
:100C00000E948F049C2D9095F301208192238C21CA
:100C1000982B9083CC24C39423014C0C511CC314F7
:100C200040F482E90E948F04F20181932F01C39462
:100C3000F6CF80E00E948F04F201808361E0F4012E
:100C400086850E94940268E1C4010E94C5048770F1
:100C5000E114F10411F0F701808323FC37C0611423
:100C60007104B1F10115110599F1AA2089F1F8017A
:100C70004081413031F4843029F58FEF77CF80E027
:100C8000ECCF4230F8F081111DC042509E012F5F21
:100C90003F4FB301C4010E940005811167CFF801E5
:100CA0009081690E711CF30132972081998129137B
:100CB00009C0F1E06F1A7108F30120819A812917A8
:100CC00009F454CF87E052CF84E050CF82E04ECF7A
:100CD00080E04CCF6CE0C4010E94C504282E8371D3
:100CE00009F460CF81E042CF8F929F92AF92CF9272
:100CF000EF92FF920F931F93CF93DF9300D000D01A
:100D00001F92CDB7DEB74C0182E08D8340E064E2F4
:100D1000C4010E94E30440E066E2C4010E94E304CF
:100D200046E268E4C4010E94E30486E28B838D817D
:100D30008230D8F16CE1C4010E94C504482F4F777E
:100D40006CE1C4010E94E30487E08C83A12CC12CD8
:100D5000CE0104967C018E010B5F1F4F9E012F5F19
:100D60003F4F41E0BE016D5F7F4FC4010E945705B8
:100D7000982F811117C08D818230B9F48C81811137
:100D800014C081E00F900F900F900F900F90DF91A3
:100D9000CF911F910F91FF90EF90CF90AF909F90C8
:100DA0008F90089581E0923069F380E0EBCF2F922D
:100DB0003F924F925F926F927F928F929F92AF92EB
:100DC000BF92CF92DF92EF92FF920F931F93CF9338
:100DD000DF93CDB7DEB72D970FB6F894DEBF0FBE09
:100DE000CDBF16E0413508F04AC1342E3B014C011D
:100DF0006CE10E94C504482F4F776CE1C4010E944A
:100E0000E30483E98983332029F081E0F3019081B1
:100E1000953008F480E022242394B12C9B2D990F67
:100E2000990F990FD32CD91AD7FCD12C32E08823F3
:100E300019F098E89B8333E021E09D2D977009F429
:100E400020E09D2D959595959595290FC9F094E0F5
:100E5000811193E0291708F4922FEB2DF0E03196E1
:100E6000E60DF71D232F4191A1E0B0E0AC0FBD1FAF
:100E7000A20FB11D4C932F5F422F431B491798F3CC
:100E8000882311F0F8E0DF0E8FE18D150CF082C0A1
:100E900090E79A838B819C8189279D8189279E81F8
:100EA00089278F839E01285F3F4F47E0BE016F5F18
:100EB0007F4FC4010E940005182F8111E0C01A86DF
:100EC000E3E0EB87DC86CE0107962C0199E09D8755
:100ED000CA844C2D4295407F4C0D6AE1C4010E94AA
:100EE000E304A12CCE010A967C018E01055F1F4F01
:100EF00092014D85BE016F5F7F4FC4010E9457056F
:100F0000182F823009F065C06CE1C4010E94C5044D
:100F100085FDB5C08F7109F480E2282F30E04D2D9A
:100F2000DD0C550B421753070CF09DC0D82EE82F4F
:100F3000E595E595E595EF5F982F977081E009F4C9
:100F400080E0E80F81E090E08C0F9D1F8E0F911DD7
:100F5000FC01215031092770332781E090E002C065
:100F6000880F991F2A95E2F79C018081822B80834C
:100F70008BCF85E98983332031F081E0F3019081C3
:100F8000983008F04BCF80E049CF87E9898326E08D
:100F9000B22EF9CF9D2D97709A878D2D85958595C9
:100FA00085958E5F282F2295207F290F2A8321E0A7
:100FB000911101C020E0280F2D8744244394512C27
:100FC0004C0E5D1E480E511CE9E0E81BEB87DC86E9
:100FD0007FCF811154C080E2D82E9C8590320CF4D2
:100FE00057CF8B81883809F040C083E093E0EB2D28
:100FF000F0E03196E60DF71D980FA1E0B0E0AC0FE0
:10100000BD1FA80FB11D2C9121938F5F8913F5CFC0
:10101000BB84E3E0BE124DC08A8581114AC09E01A7
:101020002D5F3F4F41E0B201C4010E940005182F1F
:10103000811125C09B81F201818198133CC09C8164
:101040008281981338C0808182FF12C02394F2E01D
:101050002F1609F48ECF83E0281609F496CF91E07D
:10106000291609F4CECE15E00AC082E094E0BFCF85
:10107000F3018387822D880F820D8F5F8083812FFC
:101080002D960FB6F894DEBF0FBECDBFDF91CF9186
:101090001F910F91FF90EF90DF90CF90BF90AF9096
:1010A0009F908F907F906F905F904F903F902F9088
:1010B000089511E0E4CF17E0E2CFCF93DF93E9EAA0
:1010C000F1E0C4E0D1E0A0E0B1E08191999189170D
:1010D00019F09C91891309C0119681E0ED3AF80747
:1010E000A1F781E0DF91CF91089580E0FBCFFC0173
:1010F00001900020E9F73197AF01481B590BBC0163
:101100008DEA91E00C945603CF93DF930E94430441
:10111000EC0184E291E00E9477088C0F9D1FDF9123
:10112000CF9108958F929F92AF92BF920F931F938A
:10113000CF93DF93CDB7DEB7A1970FB6F894DEBF9C
:101140000FBECDBF19A2423008F44AE08E010F5DF8
:101150001F4F842E912CB12CA12CA50194010E942B
:10116000810DE62FB901CA01EA30F4F4E05DD8013F
:10117000EE938D01232B242B252B79F790E080E033
:10118000109719F0CD010E947708A1960FB6F89438
:10119000DEBF0FBECDBFDF91CF911F910F91BF90EA
:1011A000AF909F908F900895E95CE1CFCF93DF934C
:1011B0000E947708EC0184E291E00E9477088C0F8E
:1011C0009D1FDF91CF91089560E087E00E94940217
:1011D00087E291E00C94D6080C946B0D6F927F928D
:1011E0008F929F92AF92BF92CF92DF92EF92FF9237
:1011F0000F931F93CF93DF9300D000D0CDB7DEB70E
:10120000CC24DD24CC1ADD0A3E0125E0620E711CDF
:1012100001E010E00C0F1D1F0C0D1D1D90E080E083
:101220000E94EC08E4E08E9FC00111248017910712
:1012300008F488C080914A0290914B028017910770
:1012400008F480C0CE0101967C01C7018C0D9D1D64
:101250000E94EC08F70181937F01E615F705A9F7D5
:1012600084E391E00E94770889EAA82E81E0B82EF5
:101270004501F40161914F0170E090E080E040E1B0
:101280000E949208FDEA8F16F1E09F0691F789E32C
:1012900091E00E947708CE0101964C01F401619122
:1012A0004F0170E090E080E040E10E9492088E14CF
:1012B0009F04A1F786E291E00E94D608CE01019634
:1012C0007C0184E391E00E947708F50161915F0160
:1012D00070E090E080E040E10E94920884E291E0BA
:1012E0000E94770884E491E00E947708F7019190CA
:1012F0007F01692D70E090E080E040E10E9492085B
:1013000084E291E00E947708F5013197808198127C
:101310001CC0FDEAAF16F1E0BF0699F6C8010F90B8
:101320000F900F900F90DF91CF911F910F91FF9031
:10133000EF90DF90CF90BF90AF909F908F907F9075
:101340006F90089510E000E0E9CF24E0C20ED11CB8
:101350005FCF1F920F920FB60F9211242F933F93DE
:101360008F939F93AF93BF938091A1019091A2011E
:10137000A091A301B091A4013091A00123E0230F1B
:101380002D3758F50196A11DB11D2093A001809322
:10139000A1019093A201A093A301B093A401809115
:1013A000A5019091A601A091A701B091A801019675
:1013B000A11DB11D8093A5019093A601A093A70143
:1013C000B093A801BF91AF919F918F913F912F91C1
:1013D0000F900FBE0F901F90189526E8230F0296CE
:1013E000A11DB11DD2CF1F920F920FB60F921124E3
:1013F0002F933F934F935F936F937F938F939F931D
:10140000AF93BF93EF93FF938DEA91E00E94D403D3
:10141000FF91EF91BF91AF919F918F917F916F91CC
:101420005F914F913F912F910F900FBE0F901F90A2
:1014300018951F920F920FB60F9211242F938F932E
:101440009F93EF93FF93E091BD01F091BE018081E6
:10145000E091C301F091C40182FD1BC09081809195
:10146000C6018F5F8F732091C701821741F0E09111
:10147000C601F0E0E355FE4F958F8093C601FF91C2
:10148000EF919F918F912F910F900FBE0F901F9012
:1014900018958081F4CFEDEAF1E01382128288EE94
:1014A00093E0A0E0B0E084839583A683B7838CE0CB
:1014B00091E09183808385EC90E09587848784EC2C
:1014C00090E09787868780EC90E0918B808B81EC11
:1014D00090E0938B828B82EC90E0958B848B86ECF2
:1014E00090E0978B868B118E128E138E148EECE407
:1014F000F2E08EE191E0918380838AE0868789E043
:1015000087878CEF93E090934B0280934A02089573
:10151000789484B5826084BD84B5816084BD85B5CE
:10152000826085BD85B5816085BD80916E008160DA
:1015300080936E0010928100809181008260809380
:101540008100809181008160809381008091800082
:101550008160809380008091B10084608093B100AD
:101560008091B00081608093B00080917A008460A7
:1015700080937A0080917A00826080937A008091D3
:101580007A00816080937A0080917A0080688093ED
:101590007A001092C10061E087E00E94C20260E020
:1015A00087E00E949402E091BD01F091BE0182E0CB
:1015B0008083E091B901F091BA011082E091BB0102
:1015C000F091BC018FEC80831092C501E091C101C4
:1015D000F091C20186E08083E091BF01F091C001EB
:1015E000808180618083E091BF01F091C0018081A2
:1015F00088608083E091BF01F091C00180818068A4
:101600008083E091BF01F091C00180818F7D808354
:10161000CFB7F89480919801811127C0E5EFF3E0EE
:101620008491E9E0F4E09491E82FF0E0EE0FFF1FE1
:10163000E353FC4FA591B491EC91E92321F461E0CF
:101640008AE00E94940261E08AE00E94C2028CB5A6
:1016500080618CBD8CB580648CBD61E08DE00E94A2
:10166000C20261E08BE00E94C202809198018F5F0C
:1016700080939801CFBF61E080915A020E94C2021C
:1016800061E080915A020E94940280915B028F3F38
:1016900009F496C060E00E94C20280915B020E9441
:1016A0006B02892B09F08CC061E080915B020E9483
:1016B000C20260E080915B020E94940283E090E0AD
:1016C0000197F1F761E080915B020E94940262E36E
:1016D00070E080E090E00E94180340E064E28CE457
:1016E00092E00E94E30440E066E28CE492E00E9413
:1016F000E30446E268E48CE492E00E94E30440E8FC
:1017000064E58CE492E00E94E30449EA66E58CE437
:1017100092E00E94E30443E068E58CE492E00E94DA
:10172000E30448EE6AE58CE492E00E94E30440E4BE
:101730006AE28CE492E00E94E3044DE362E28CE40E
:1017400092E00E94E30468E28CE492E00E94C50407
:10175000982F9370933039F0482F436068E28CE4FF
:1017600092E00E94E3046EE68CE492E00E94C504DD
:10177000C82F82E091E00E9443046C2F70E090E05B
:1017800080E040E10E9492088AEF90E0C13931F098
:1017900082EF90E0C23911F08DEC90E00E9443049A
:1017A00086E291E00E94D608C150CE3F00F18AE85F
:1017B00090E00E94840888E690E00E948408FFCFB1
:1017C0004FE062E08CE492E00E94E304C3E062E355
:1017D00070E080E090E00E94180362E08CE492E008
:1017E0000E94C50484FF79CFC15089F776CF81E587
:1017F00091E00E94770890E080E00E94EC08682F5A
:1018000070E090E080E04AE00E94920800E010E082
:1018100087E00E946B02892BA9F00E944A03C090C6
:101820009C01D0909D01E0909E01F0909F016C1969
:101830007D098E099F09603777418105910510F078
:101840000E94E4088CE492E00E947406882309F464
:10185000DCC08CE492E00E947E04882309F4D5C0A9
:10186000CFE4D2E089EAE82E81E0F82E6991F70111
:1018700061937F0170E090E080E040E10E94920877
:10188000FDEAEF16F1E0FF0689F786E291E00E949B
:10189000D60880919B01882309F4BEC00E945D0890
:1018A0008823D1F089EB93E00E94840884EA93E0D6
:1018B0000E94840886E893E00E94840810929B01AD
:1018C0000115110509F4A4CF0E94C003882309F46F
:1018D0009FCF0E9400009CCF90E080E00E94EC0827
:1018E00081114AC010929A01109299014AE060E079
:1018F00070E0CB010E94920884E291E00E94770898
:1019000080E193E00E94840890E080E00E94EC086F
:1019100024E0829FC0011124C9EAD1E0FC01E95A08
:10192000F1406F016991C6018C0F9D1F0E94730DDC
:10193000EC16FD06B9F790E080E00E94EC0861E04B
:10194000680F90E080E00E94730D87EB91E00E94A9
:10195000840889E991E00E94840882E791E00E946E
:10196000840884E093E00E94840886EE92E00E945E
:1019700084088FEB92E047C00E94EE0890939A0192
:1019800080939901009709F4B1CFBC0190E080E009
:101990004AE00E94920884E291E00E94770888E67B
:1019A00093E00E948408E0909901F0909A01D0E0C1
:1019B000C0E060E0C7018C0F9D1F0E94730D21964F
:1019C000C430D105B1F790E080E00E94EC086FEFE1
:1019D000680F90E080E00E94730D84E691E00E9421
:1019E000840886E491E00E9484088FE191E00E94DF
:1019F00084088AE593E00E9484088BE691E00E94C7
:101A0000D60883E393E00E94840868EE73E080E0E8
:101A100090E00E94180354CF0E945D08882349F18A
:101A200081E080939B018BE992E00E94840883E926
:101A300092E00E94430490E080E00E94EC08682F4E
:101A400070E090E080E04AE00E9492088EE792E029
:101A50000E94430486E291E00E94D60887E592E066
:101A60000E9484088BE292E00E9484088DE092E05C
:101A7000CACF90E080E00E94EC08882329F10E9400
:101A8000EE08892B09F185EF91E00E94840887E038
:101A90000E946B02892BA9F461E087E00E94940206
:101AA0000E944A0360939C0170939D0180939E0164
:101AB00090939F0189E891E00E94D60885EE91E01D
:101AC000A2CF0E94E408FACF82ED91E00E94840840
:101AD00083EC91E098CFF999FECF92BD81BDF89A41
:101AE000992780B50895262FF999FECF1FBA92BD88
:101AF00081BD20BD0FB6F894FA9AF99A0FBE0196EF
:101B00000895A1E21A2EAA1BBB1BFD010DC0AA1F3E
:101B1000BB1FEE1FFF1FA217B307E407F50720F056
:101B2000A21BB30BE40BF50B661F771F881F991FD1
:101B30001A9469F760957095809590959B01AC011A
:101B4000BD01CF010895EE0FFF1F0590F491E02D28
:061B50000994F894FFCF98
:101B5600CDEDC982EC00D83200000000F603560332
:101B660083035E04B4039203A60300000000D706B5
:101B760074067E040D0A0052656C6179206C6F63F1
:101B86006B65640069643A200073746F726564491A
:101B9600443A200073746F726564436172643A203C
:101BA600006E756D626572206F6620616C6C6F7772
:101BB6006564206361726473203A002D2D2D2D2DEE
:101BC6002D2D2D2D2D2D2D2D2D2D2D2D2D2D2D2D3F
:101BD6002D2D2D2D2D2D2D2D0052656C6179207505
:081BE6006E6C6F636B65640017
:00000001FF
