:020000040000FA
:100000000C9415020C943D020C943D020C943D029C
:100010000C943D020C943D020C943D020C94490C4E
:100020000C943D020C943D020C943D020C943D0254
:100030000C943D020C943D020C943D020C943D0244
:100040000C94FF0B0C943D020C94CB0C0C94A50C5F
:100050000C943D020C943D020C943D020C943D0224
:100060000C943D020C943D0253595354454D204885
:10007000414C5445443A20436865636B20636F6E7E
:100080006E656374696F6E732E005741524E494E10
:10009000473A20436F6D6D756E69636174696F6E69
:1000A000206661696C7572652C20697320746865BF
:1000B000204D4652433532322070726F7065726C3B
:1000C0007920636F6E6E65637465643F00202875E8
:1000D0006E6B6E6F776E292C70726F6261626C79D5
:1000E0002061206368696E65736520636C6F6E655F
:1000F0003F00203D2076322E3000203D2076312EEC
:1001000030004D46524335323220536F667477616A
:1001100072652056657273696F6E3A2030780053AD
:1001200063616E2061205049434320746F20414435
:1001300044206F722052454D4F564520746F204524
:100140004550524F4D002D2D2D2D2D2D2D2D2D2D6A
:100150002D2D2D2D2D2D2D2D2D2D2D2D2D2D2D2DCF
:100160002D2D2D00504943432052656D6F766564F7
:1001700021005363616E2061205049434320746F16
:1001800020414444206F722052454D4F5645207403
:100190006F20454550524F4D002D2D2D2D2D2D2DCD
:1001A0002D2D2D2D2D2D2D2D2D2D2D2D2D2D2D2D7F
:1001B0002D2D2D2D2D2D0050494343204164646584
:1001C0006421004163636573732044656E696564EF
:1001D0002100596F75207368616C6C206E6F7420FC
:1001E0007061737300416363657373204772616E5E
:1001F000746564210057656C636F6D652C20596FC1
:1002000075207368616C6C2070617373002D2D2DE7
:100210002D2D2D2D2D2D2D2D2D2D2D2D2D2D2D2D0E
:100220002D2D2D2D2D2D2D2D2D2D005363616E2067
:100230004D61737465722043617264206167616906
:100240006E20746F20457869742050726F677261F8
:100250006D204D6F6465005363616E2061205049CD
:10026000434320746F20414444206F722052454D17
:100270004F564520746F20454550524F4D00207217
:1002800065636F7264287329206F6E204545505254
:100290004F4D00492068617665200048656C6C6FA1
:1002A000204D6173746572202D20456E74657265F2
:1002B000642050726F6772616D204D6F64650053EA
:1002C00063616E2061205049434320746F20414494
:1002D00044206F722052454D4F564520746F204583
:1002E0004550524F4D002D2D2D2D2D2D2D2D2D2DC9
:1002F0002D2D2D2D2D2D2D2D2D2D2D2D2D2D2D2D2E
:100300002D2D2D0050494343204164646564210034
:100310004920646F206E6F74206B6E6F7720746855
:10032000697320504943432C20616464696E672ED1
:100330002E2E005363616E20612050494343207488
:100340006F20414444206F722052454D4F56452046
:10035000746F20454550524F4D0050494343205241
:10036000454D4F564544210049206B6E6F772074F0
:1003700068697320504943432C2072656D6F76691C
:100380006E672E2E2E002D2D2D2D2D2D2D2D2D2D4C
:100390002D2D2D2D2D2D2D2D2D2D2D2D2D2D2D2D8D
:1003A0002D2D2D0045786974696E672050726F6736
:1003B00072616D204D6F6465004D617374657220CC
:1003C00043617264205363616E6E656400000000D7
:1003D00000240027002A0000000000230026002936
:1003E00000000000080002010000030407000000F4
:1003F00000000000000102040810204080010204F7
:100400000810200102040810200000000025002828
:10041000002B000404040404040404020202020287
:100420000203030303030302FD0C11241FBECFEFDD
:10043000D8E0DEBFCDBF11E0A0E0B1E0E0E2F2E243
:1004400002C005900D92A838B107D9F722E0A8E8BC
:10045000B1E001C01D92AD35B207E1F712E0C5E190
:10046000D2E004C02197FE010E94F910C431D107E7
:10047000C9F70E943A0D0C940E110C9400008CBD2B
:100480009DBD0895833081F028F4813099F0823049
:10049000A9F008958730A9F08830C9F08430B1F40C
:1004A000809180008F7D03C0809180008F77809342
:1004B0008000089584B58F7784BD089584B58F7DBD
:1004C000FBCF8091B0008F778093B000089580912A
:1004D000B0008F7DF9CFCF93DF93282F30E0F90163
:1004E000EF51FC4F8491F901EB50FC4FD491F9018D
:1004F000ED5EFB4FC491CC23A1F081110E9442021A
:10050000EC2FF0E0EE0FFF1FE952FC4FA591B491E4
:10051000EC91ED2381E090E009F480E0DF91CF9150
:10052000089580E090E0FACF1F93CF93DF93282FB8
:1005300030E0F901EF51FC4F8491F901EB50FC4F91
:10054000D491F901ED5EFB4FC491CC23A9F0162F95
:1005500081110E944202EC2FF0E0EE0FFF1FE75FD7
:10056000FB4FA591B4918FB7F894EC91111108C08D
:10057000D095DE23DC938FBFDF91CF911F9108953B
:10058000DE2BF8CFCF93DF9390E0FC01EB50FC4FD4
:1005900024918D5E9B4FFC0184918823D1F090E0E3
:1005A000880F991FFC01E353FC4FA591B491FC0106
:1005B000E75FFB4FC591D49161110EC09FB7F894CE
:1005C0008C91E22FE0958E238C932881E223E8839F
:1005D0009FBFDF91CF9108958FB7F894EC91E22BF4
:1005E000EC938FBFF6CF4F925F926F927F928F9274
:1005F0009F92AF92BF92CF92DF92EF92FF920F93B2
:100600001F93CF93DF9300D000D01F92CDB7DEB7FA
:100610008C0149835A836B837C83809100018830ED
:10062000C9F08F3F09F47DC00F900F900F900F908D
:100630000F90DF91CF911F910F91FF90EF90DF907E
:10064000CF90BF90AF909F908F907F906F905F9072
:100650004F900895E7E2F4E084918D8387FDE4CF25
:1006600061E088E00E94C2028D81882321F09D8193
:10067000923009F044C14801B12CA12C60E072E134
:100680008AE790E0A50198010E94CF1029013A0164
:100690007A01690181E0C81AD108E108F1089FEFE9
:1006A000C916D104E104F10409F00CF4F7C060E4C8
:1006B00072E48FE090E0A50198010E94CF106901DB
:1006C0007A0181E0C81AD108E108F1089D819230D1
:1006D00009F098C08FEFC816D104E104F10409F0C5
:1006E0000CF4CAC160E970ED83E090E0A5019801C7
:1006F0000E94CF1069017A0191E0C91AD108E1087E
:10070000F1088FEFC816D104E104F10411F00CF0E8
:1007100065C183E09091B100987F892B8093B100EF
:10072000C5C088E080930001E7E2F4E094919D83E6
:100730009F3F09F479CF913029F158F0923009F4B4
:100740003FC09D8197FD70CF61E088E00E94C202AA
:100750008ECF14BC15BC84B5826084BD85B5816024
:1007600085BDEBE1F4E0E491F0E0EE0FFF1FE75F01
:10077000FB4F85919491EDEFF3E0E491E093A101BB
:100780001D826ECF109280001092810080918100B6
:1007900088608093810080918100816080938100D6
:1007A000EBE1F4E0E491F0E0EE0FFF1FE75FFB4FB9
:1007B00085919491EDEFF3E0E491E093A00150CFA7
:1007C0001092B0001092B1008091B00082608093CE
:1007D000B0008091B10081608093B100EBE1F4E062
:1007E000E491F0E0EE0FFF1FE75FFB4F85919491DE
:1007F00090939F0180939E01EDEFF3E0E491E093ED
:100800009D012ECF9FEFC916D104E104F10409F038
:100810000CF473C068E478EE81E090E0A5019801E3
:100820000E94CF1069017A0181E0C81AD108E1085D
:10083000F1089D81992309F4EAC09FEFC916D104FC
:10084000E104F10409F00CF4E0C0EAC064E274EFE2
:1008500080E090E0A50194010E94CF1069017A0127
:1008600081E0C81AD108E108F10885E09FEFC916B8
:10087000D104E104F10409F008F44CCF62E17AE715
:1008800080E090E0A50194010E94CF1069017A01F7
:1008900081E0C81AD108E108F108D5C081E09D8146
:1008A000911138CF95B5987F892B85BDD801AA0FB6
:1008B000BB1F29813A814B815C810E94EE1028EE9A
:1008C00033E040E050E00E94AD108D81813009F4AA
:1008D0004AC0823009F459C08111A6CEC7BC20930A
:1008E000AA013093AB014093AC015093AD018091CC
:1008F0006E00826080936E0097CE82E0D0CFB12CE4
:10090000A12C60E072E18AE790E0A50198010E94C5
:10091000CF1069017A0181E0C81AD108E108F10815
:10092000C114D10491E0E906F10464F491E08D81F1
:10093000813009F0BBCF80918100887F892B809323
:100940008100B4CF68E478EE81E090E0A5019801E1
:100950000E94CF1069017A0181E0C81AD108E1082C
:10096000F10893E0E4CFD0928900C09288002093F0
:10097000A6013093A7014093A8015093A90180914B
:100980006F00826080936F004FCEC092B3002093BF
:10099000A2013093A3014093A4015093A50180913B
:1009A00070008260809370003FCE84E09FEFC91694
:1009B000D104E104F10409F008F474CF7301620179
:1009C0009AE0F594E794D794C7949A95D1F781E08B
:1009D000C81AD108E108F10885E064CF68E478EE30
:1009E00081E090E0A50198010E94CF1069017A0191
:1009F00091E0C91AD108E108F1088FEFC816D104B7
:100A0000E104F10411F00CF021CF84E083CE83E007
:100A10009FEFC916D104E104F10409F00CF442CFB0
:100A200062E17AE780E090E0A50194010E94CF1096
:100A300069017A0181E0C81AD108E108F1089D81B5
:100A4000992309F4B2CF86E09FEFC916D104E104DF
:100A5000F10409F008F45ECE730162012AE0F59416
:100A6000E794D794C7942A95D1F781E0C81AD108A2
:100A7000E108F10887E04ECE82E04CCE44EF51E031
:100A800060E070E02EE3FC012E9FC0012F9F900DCF
:100A900011240C94F3023FB7F89480919501909142
:100AA0009601A0919701B091980126B5A89B05C029
:100AB0002F3F19F00196A11DB11D3FBFBA2FA92FDD
:100AC000982F8827BC01CD01620F711D811D911DDA
:100AD00042E0660F771F881F991F4A95D1F7089546
:100AE0008F929F92AF92BF92CF92DF92EF92FF923E
:100AF0006B017C010E944B054B015C01C114D104C8
:100B0000E104F104B9F00E944B05681979098A09DA
:100B10009B09683E73408105910580F321E0C21A6C
:100B2000D108E108F10888EE880E83E0981EA11C28
:100B3000B11CE4CFFF90EF90DF90CF90BF90AF90CB
:100B40009F908F9008952FB7F894609191017091C4
:100B5000920180919301909194012FBF08959091FB
:100B6000000189130BC0E7E2F4E0E4919FEF90935A
:100B70000001E13049F028F0E23061F060E00C94CF
:100B8000940210926E00FACF90916F009D7F909327
:100B90006F00F4CF909170009D7F9093700091E072
:100BA0009093B0009091B100987F94609093B100C1
:100BB0001092B300E3CFAF92BF92CF92DF92EF9249
:100BC000FF920F931F93CF93DF936C017B018B01F7
:100BD000040F151FEB015E01AE18BF08C017D10747
:100BE00059F06991D601ED91FC910190F081E02DD1
:100BF000C6010995892B79F7C501DF91CF911F9126
:100C00000F91FF90EF90DF90CF90BF90AF9008953D
:100C1000FC01538D448D252F30E0842F90E0821B02
:100C2000930B541710F0CF96089501970895FC0187
:100C3000918D828D981761F0A28DAE0FBF2FB11DDF
:100C40005D968C91928D9F5F9F73928F90E0089537
:100C50008FEF9FEF0895FC01918D828D981731F0F1
:100C6000828DE80FF11D858D90E008958FEF9FEF45
:100C70000895FC01918D228D892F90E0805C9F4F1B
:100C8000821B91098F73992708958EEA91E00E9443
:100C9000390621E0892B09F420E0822F089580E0B5
:100CA00090E0892B29F00E94450681110C940000E8
:100CB0000895FC01A48DA80FB92FB11DA35ABF4FF1
:100CC0002C91848D90E001968F739927848FA6894B
:100CD000B7892C93A089B1898C91837080648C939F
:100CE000938D848D981306C00288F389E02D80814E
:100CF0008F7D80830895EF92FF920F931F93CF9380
:100D0000DF93EC0181E0888F9B8D8C8D98131AC046
:100D1000E889F989808185FF15C09FB7F894EE892D
:100D2000FF896083E889F98980818370806480838A
:100D30009FBF81E090E0DF91CF911F910F91FF90D5
:100D4000EF900895F62E0B8D10E00F5F1F4F0F737D
:100D50001127E02E8C8D8E110CC00FB607FCFACF38
:100D6000E889F989808185FFF5CFCE010E94590677
:100D7000F1CFEB8DEC0FFD2FF11DE35AFF4FF08209
:100D80009FB7F8940B8FEA89FB8980818062CFCF6F
:100D90000F931F93CF93DF938C01D0E0C0E0F80155
:100DA000EC0FFD1F6491662341F08EEA91E00E94F2
:100DB0007B06892B11F02196F2CFCE01DF91CF91E6
:100DC0001F910F910895CF93DF93EC01888D8823B5
:100DD000B9F0AA89BB89E889F9898C9185FD03C09E
:100DE000808186FD0DC00FB607FCF7CF8C9185FF83
:100DF000F2CF808185FFEDCFCE010E945906E9CF69
:100E0000DF91CF910895BC016E5F7F4FDC01ED91C2
:100E1000FC910190F081E02D40E0099591E0811175
:100E200090E0892F089508958EBD00000DB407FE4F
:100E3000FDCF8EB50895DF92EF92FF920F931F932F
:100E4000CF93DF937C01062FD42E152F80E590E001
:100E50000E943F0260E0F70186850E94940282E1D1
:100E60000E941407CD2DD12F0C0F1D2F111DC0175F
:100E7000D10721F089910E941407F9CF61E0F701B1
:100E80008685DF91CF911F910F91FF90EF90DF90BA
:100E90000C9494021F93CF93DF93EC01162F80E5FF
:100EA00090E00E943F0260E08E850E949402812FB4
:100EB00080680E94140780E00E941407182F61E0E8
:100EC0008E850E949402812FDF91CF911F9108950A
:100ED0000F931F93CF93DF93EC01062F142F80E520
:100EE00090E00E943F0260E08E850E949402802F75
:100EF0000E941407812F0E94140761E08E85DF9104
:100F0000CF911F910F910C949402CF92DF92EF92A8
:100F1000FF920F931F93CF93DF93EC016B01F42E9D
:100F2000890140E062E00E94680744E06AE0CE0187
:100F30000E94680740E864E1CE010E946807A601AC
:100F40006F2DCE010E941B0743E062E0CE010E949C
:100F500068070E94A3056B017C0129E5C20ED11C24
:100F6000E11CF11C6AE0CE010E944A0782FF1BC00F
:100F700040E062E0CE010E94680764E4CE010E9476
:100F80004A07F801808362E4CE010E944A07F80113
:100F9000818380E0DF91CF911F910F91FF90EF90BF
:100FA000DF90CF9008950E94A3056C157D058E05F6
:100FB0009F05C0F283E0EECF2F923F924F925F9257
:100FC0006F927F928F929F92AF92CF92DF92EF9229
:100FD000FF920F931F93CF93DF9300D0CDB7DEB76F
:100FE0004C012B01D42E390180E0E114F10411F001
:100FF000F70180813C2C329490EF3922380E40E08A
:1010000062E0C4010E9468074FE768E0C4010E94E3
:10101000680740E864E1C4010E946807A2016D2DE1
:10102000C4010E941B07432D6AE1C4010E946807A6
:101030004CE062E0C4010E9468076AE1C4010E94BA
:101040004A07482F40686AE1C4010E9468070E946D
:10105000A3051B012C01F4E22F0E311C411C511C75
:1010600068E0C4010E944A07982F907309F0B7C046
:1010700080FF15C083E00F900F90DF91CF911F91FB
:101080000F91FF90EF90DF90CF90AF909F908F9057
:101090007F906F905F904F903F902F9008950E94A7
:1010A000A3056215730584059505D0F2E3CF61149D
:1010B000710409F469C00115110509F465C064E102
:1010C000C4010E944A07382EF8018081831508F474
:1010D00080C030823320E1F180E590E00E943F0241
:1010E00060E0F40186850E9494023A9482E90E94AD
:1010F0001407CC20B1F08FEF90E09C0102C0220FCA
:10110000331FCA94E2F7690182E90E9414079C2DFB
:101110009095F301208192238C21982B9083CC24ED
:10112000C39423014C0C511CC31440F482E90E9467
:101130001407F20181932F01C394F6CF80E00E943F
:101140001407F201808361E0F40186850E94940215
:1011500068E1C4010E944A078770E114F10411F0AC
:10116000F701808323FC37C061147104B1F10115CC
:10117000110599F1AA2089F1F8014081413031F43B
:10118000843029F58FEF77CF80E0ECCF4230F8F054
:1011900081111DC042509E012F5F3F4FB301C4011A
:1011A0000E948507811167CFF8019081690E711C3B
:1011B000F301329720819981291309C0F1E06F1A58
:1011C0007108F30120819A81291709F454CF87E02F
:1011D00052CF84E050CF82E04ECF80E04CCF6CE025
:1011E000C4010E944A07282E837109F460CF81E070
:1011F00042CF8F929F92AF92CF92EF92FF920F9336
:101200001F93CF93DF9300D000D01F92CDB7DEB7EE
:101210004C0182E08D8340E064E2C4010E946807D3
:1012200040E066E2C4010E94680746E268E4C40147
:101230000E94680786E28B838D818230D8F16CE151
:10124000C4010E944A07482F4F776CE1C4010E94F5
:10125000680787E08C83A12CC12CCE0104967C0109
:101260008E010B5F1F4F9E012F5F3F4F41E0BE017C
:101270006D5F7F4FC4010E94DC07982F811117C05A
:101280008D818230B9F48C81811114C081E00F907E
:101290000F900F900F900F90DF91CF911F910F91B2
:1012A000FF90EF90CF90AF909F908F90089581E046
:1012B000923069F380E0EBCF2F923F924F925F9292
:1012C0006F927F928F929F92AF92BF92CF92DF9256
:1012D000EF92FF920F931F93CF93DF93CDB7DEB7BB
:1012E0002D970FB6F894DEBF0FBECDBF16E0413587
:1012F00008F04AC1342E3B014C016CE10E944A07C0
:10130000482F4F776CE1C4010E94680783E9898305
:10131000332029F081E0F3019081953008F480E0DA
:1013200022242394B12C9B2D990F990F990FD32C24
:10133000D91AD7FCD12C32E0882319F098E89B8386
:1013400033E021E09D2D977009F420E09D2D9595C7
:1013500095959595290FC9F094E0811193E029178F
:1013600008F4922FEB2DF0E03196E60DF71D232FB8
:101370004191A1E0B0E0AC0FBD1FA20FB11D4C9395
:101380002F5F422F431B491798F3882311F0F8E091
:10139000DF0E8FE18D150CF082C090E79A838B8170
:1013A0009C8189279D8189279E8189278F839E0122
:1013B000285F3F4F47E0BE016F5F7F4FC4010E942F
:1013C0008507182F8111E0C01A86E3E0EB87DC86E1
:1013D000CE0107962C0199E09D87CA844C2D429539
:1013E000407F4C0D6AE1C4010E946807A12CCE0128
:1013F0000A967C018E01055F1F4F92014D85BE014B
:101400006F5F7F4FC4010E94DC07182F823009F004
:1014100065C06CE1C4010E944A0785FDB5C08F71AB
:1014200009F480E2282F30E04D2DDD0C550B4217DA
:1014300053070CF09DC0D82EE82FE595E595E5956E
:10144000EF5F982F977081E009F480E0E80F81E06A
:1014500090E08C0F9D1F8E0F911DFC0121503109D2
:101460002770332781E090E002C0880F991F2A95EA
:10147000E2F79C018081822B80838BCF85E9898371
:10148000332031F081E0F3019081983008F04BCFA8
:1014900080E049CF87E9898326E0B22EF9CF9D2DE0
:1014A00097709A878D2D8595859585958E5F282FC8
:1014B0002295207F290F2A8321E0911101C020E08D
:1014C000280F2D8744244394512C4C0E5D1E480E4A
:1014D000511CE9E0E81BEB87DC867FCF811154C00B
:1014E00080E2D82E9C8590320CF457CF8B818838BF
:1014F00009F040C083E093E0EB2DF0E03196E60D7B
:10150000F71D980FA1E0B0E0AC0FBD1FA80FB11DF3
:101510002C9121938F5F8913F5CFBB84E3E0BE123A
:101520004DC08A8581114AC09E012D5F3F4F41E029
:10153000B201C4010E948507182F811125C09B812B
:10154000F201818198133CC09C818281981338C03C
:10155000808182FF12C02394F2E02F1609F48ECF0F
:1015600083E0281609F496CF91E0291609F4CECE2F
:1015700015E00AC082E094E0BFCFF3018387822D9B
:10158000880F820D8F5F8083812F2D960FB6F89480
:10159000DEBF0FBECDBFDF91CF911F910F91FF90A6
:1015A000EF90DF90CF90BF90AF909F908F907F9003
:1015B0006F905F904F903F902F90089511E0E4CF8F
:1015C00017E0E2CFCF93DF93E9E9F1E0C5E0D1E0A6
:1015D000A1E0B1E081919991891719F09C9189134B
:1015E00009C0119681E0ED39F807A1F781E0DF919C
:1015F000CF91089580E0FBCFCF92DF92EF92FF92E0
:10160000CF93DF93D82FC0E0C62ED12CF12CE12C44
:1016100061E08DE00E949402C701B6010E9470054E
:1016200060E08DE00E949402C701B6010E9470053F
:10163000CF5FDC13EDCFDF91CF91FF90EF90DF9084
:10164000CF900895FC0101900020E9F73197AF0198
:10165000481B590BBC018EEA91E00C94DB05CF933B
:10166000DF930E94C806EC0185E291E00E94220B04
:101670008C0F9D1FDF91CF9108958F929F92AF9213
:10168000BF920F931F93CF93DF93CDB7DEB7A19790
:101690000FB6F894DEBF0FBECDBF19A2423008F4DA
:1016A0004AE08E010F5D1F4F842E912CB12CA12C8E
:1016B000A50194010E94AD10E62FB901CA01EA30DC
:1016C000F4F4E05DD801EE938D01232B242B252B20
:1016D00079F790E080E0109719F0CD010E94220B7D
:1016E000A1960FB6F894DEBF0FBECDBFDF91CF91AC
:1016F0001F910F91BF90AF909F908F900895E95CDC
:10170000E1CFCF93DF930E94220BEC0185E291E0C1
:101710000E94220B8C0F9D1FDF91CF91089560E0F6
:1017200087E00E94940288E291E00C94810B0C9473
:101730009710AF92BF92CF92DF92EF92FF920F93EA
:101740001F93CF93DF9300D000D0CDB7DEB7EE2448
:10175000FF24EC1AFD0A5E0125E0A20EB11C01E097
:1017600010E00C0F1D1F0E0D1F1D90E080E00E9469
:10177000970BE4E08E9FC00111248017910768F158
:1017800080914B0290914C028017910730F1CE016D
:1017900001966C01C6018E0D9F1D0E94970BF601EC
:1017A00081936F01EA15FB05A9F799818091990151
:1017B00098130FC090919A018A8198130AC0909152
:1017C0009B018B81981305C090919C018C81981787
:1017D00031F0F4E0EF0EF11CC2CF10E000E0C801E0
:1017E0000F900F900F900F90DF91CF911F910F915D
:1017F000FF90EF90DF90CF90BF90AF9008951F9231
:101800000F920FB60F9211242F933F938F939F93B4
:10181000AF93BF938091910190919201A091930118
:10182000B09194013091900123E0230F2D3758F5AA
:101830000196A11DB11D2093900180939101909379
:101840009201A0939301B09394018091950190919E
:101850009601A0919701B09198010196A11DB11D2B
:101860008093950190939601A0939701B09398016E
:10187000BF91AF919F918F913F912F910F900FBE8C
:101880000F901F90189526E8230F0296A11DB11DF9
:10189000D2CF1F920F920FB60F9211242F933F9326
:1018A0004F935F936F937F938F939F93AF93BF9368
:1018B000EF93FF938091A2019091A301A091A401C5
:1018C000B091A501892B8A2B8B2BD1F190919D0191
:1018D000E0919E01F0919F01808189278083809112
:1018E000A2019091A301A091A401B091A5011816A5
:1018F00019061A061B069CF48091A2019091A3017F
:10190000A091A401B091A5010197A109B10980930B
:10191000A2019093A301A093A401B093A501FF910C
:10192000EF91BF91AF919F918F917F916F915F9157
:101930004F913F912F910F900FBE0F901F901895D0
:10194000809100010E94AF05EACF1F920F920FB65F
:101950000F9211242F933F934F935F936F937F9335
:101960008F939F93AF93BF93EF93FF938EEA91E092
:101970000E945906FF91EF91BF91AF919F918F9176
:101980007F916F915F914F913F912F910F900FBE7B
:101990000F901F9018951F920F920FB60F9211245F
:1019A0002F938F939F93EF93FF93E091BE01F0915C
:1019B000BF018081E091C401F091C50182FD1BC08F
:1019C00090818091C7018F5F8F732091C80182172A
:1019D00041F0E091C701F0E0E255FE4F958F809312
:1019E000C701FF91EF919F918F912F910F900FBEA3
:1019F0000F901F9018958081F4CFEEEAF1E01382EA
:101A0000128288EE93E0A0E0B0E084839583A68301
:101A1000B7838DE091E09183808385EC90E095879A
:101A2000848784EC90E09787868780EC90E0918BA8
:101A3000808B81EC90E0938B828B82EC90E0958B95
:101A4000848B86EC90E0978B868B118E128E138E92
:101A5000148EEDE4F2E08FE191E0918380838AE0DF
:101A6000868789E087878CEF93E090934C02809380
:101A70004B020895789484B5826084BD84B58160FA
:101A800084BD85B5826085BD85B5816085BD809149
:101A90006E00816080936E001092810080918100C1
:101AA00082608093810080918100816080938100B9
:101AB000809180008160809380008091B10084607B
:101AC0008093B1008091B00081608093B0008091DC
:101AD0007A00846080937A0080917A00826080939B
:101AE0007A0080917A00816080937A0080917A00F8
:101AF000806880937A001092C10064E683E00E94BF
:101B0000FC0A61E08DE00E94C20260E08DE00E946C
:101B1000940261E088E00E94C20260E088E00E94D6
:101B2000940261E087E00E94C20260E087E00E94C8
:101B30009402E091BE01F091BF0182E08083E091C8
:101B4000BA01F091BB011082E091BC01F091BD019E
:101B50008FEC80831092C601E091C201F091C30125
:101B600086E08083E091C001F091C10180818061B5
:101B70008083E091C001F091C10180818860808301
:101B8000E091C001F091C101808180688083E09183
:101B9000C001F091C10180818F7D8083CFB7F8941F
:101BA00080918801811127C0EDE1F4E08491EFEF8D
:101BB000F3E09491E82FF0E0EE0FFF1FE353FC4FAA
:101BC000A591B491EC91E92321F461E08AE00E94AF
:101BD000940261E08AE00E94C2028CB580618CBDF3
:101BE0008CB580648CBD61E08DE00E94C20261E032
:101BF0008BE00E94C202809188018F5F80938801F0
:101C0000CFBF85E090E00E943E0568EC70E080E088
:101C100090E00E94700544EF51E060E070E084ECD9
:101C200090E00E94F30268EC70E080E090E00E9497
:101C3000700586E090E00E943E0568EC70E080E070
:101C400090E00E94700588E00E94AF0561E08091FD
:101C50005B020E94C20261E080915B020E949402DA
:101C600080915C028F3F09F496C060E00E94C2023E
:101C700080915C020E946B02892B09F08CC061E0AC
:101C800080915C020E94C20260E080915C020E942E
:101C9000940283E090E00197F1F761E080915C02AB
:101CA0000E94940262E370E080E090E00E94700580
:101CB00040E064E28DE492E00E94680740E066E262
:101CC0008DE492E00E94680746E268E48DE492E0C9
:101CD0000E94680740E864E58DE492E00E9468078E
:101CE00049EA66E58DE492E00E94680743E068E512
:101CF0008DE492E00E94680748EE6AE58DE492E088
:101D00000E94680740E46AE28DE492E00E9468075E
:101D10004DE362E28DE492E00E94680768E28DE4A0
:101D200092E00E944A07982F9370933039F0482F21
:101D3000436068E28DE492E00E9468076EE68DE4FD
:101D400092E00E944A07C82F82E091E00E94C806F4
:101D50006C2F70E090E080E040E10E943D0B8AEF44
:101D600090E0C13931F082EF90E0C23911F08DEC92
:101D700090E00E94C80687E291E00E94810BC1506A
:101D8000CE3F00F18AE890E00E942F0B88E690E0B9
:101D90000E942F0BFFCF4FE062E08DE492E00E94A3
:101DA0006807C3E062E370E080E090E00E947005A5
:101DB00062E08DE492E00E944A0784FF79CFC1502F
:101DC00089F776CF85E391E00E94220B90E080E0D6
:101DD0000E94970B682F70E090E080E04AE00E943C
:101DE0003D0B00E010E087E00E946B02892BA9F018
:101DF0000E94A305C0908C01D0908D01E0908E01CF
:101E0000F0908F016C197D098E099F0960367A4E1A
:101E10008105910510F00E948F0B8DE492E00E94E5
:101E2000F908882309F4E8C08DE492E00E940307D2
:101E3000882309F4E1C087E291E00E94810B8FE4DE
:101E400091E00E94220BC0E5D2E089E9E82E81E012
:101E5000F82E6991F70161937F0170E090E080E0D6
:101E600040E10E943D0BFDE9EF16F1E0FF0689F726
:101E700087E291E00E94810B80918B01882309F415
:101E8000C2C00E94E20A8823F1F089EB93E00E942D
:101E90002F0B84EA93E00E942F0B86E893E00E94C8
:101EA0002F0B10928B0162E385E00E94FC0A011562
:101EB000110509F498CF0E944506882309F493CFB1
:101EC0000E94000090CF90E080E00E94970B81116B
:101ED0004AC010928A01109289014AE060E070E0E5
:101EE000CB010E943D0B85E291E00E94220B80E134
:101EF00093E00E942F0B90E080E00E94970B24E07B
:101F0000829FC0011124C9E9D1E0FC01E959F140E7
:101F10006F016991C6018C0F9D1F0E949F10EC16E6
:101F2000FD06B9F790E080E00E94970B61E0680F32
:101F300090E080E00E949F1087EB91E00E942F0BC1
:101F400089E991E00E942F0B82E791E00E942F0B1C
:101F500084E093E00E942F0B86EE92E00E942F0B0C
:101F60008FEB92E047C00E94990B90938A01809377
:101F70008901009709F4B1CFBC0190E080E04AE00C
:101F80000E943D0B85E291E00E94220B88E693E0DF
:101F90000E942F0BE0908901F0908A01D0E0C0E010
:101FA00060E0C7018C0F9D1F0E949F102196C430D6
:101FB000D105B1F790E080E00E94970B6FEF680FBA
:101FC00090E080E00E949F1084E691E00E942F0B39
:101FD00086E491E00E942F0B8FE191E00E942F0B8D
:101FE0008AE593E00E942F0B8BE591E00E94810B24
:101FF00083E393E00E942F0B64EF71E080E090E0B8
:102000000E94700554CF0E94E20A882369F181E0A2
:1020100080938B0164E685E00E94FC0A8BE992E0E4
:102020000E942F0B83E992E00E94C80690E080E0B6
:102030000E94970B682F70E090E080E04AE00E94D9
:102040003D0B8EE792E00E94C80687E291E00E9475
:10205000810B87E592E00E942F0B8BE292E00E94B9
:102060002F0B8DE092E0C6CF90E080E00E94970BAE
:102070008823A9F10E94990B892B89F185EF91E0C2
:102080000E942F0B87E00E946B02892B29F561E0EB
:1020900087E00E9494020E94A30560938C017093D4
:1020A0008D0180938E0190938F0189E791E00E94CA
:1020B000810B44E650E060E070E088EE93E00E941F
:1020C000F30244E650E060E070E084EF91E00E94AB
:1020D000F30285EE91E08ECF0E948F0BFACF82ED56
:1020E00091E00E942F0B85E090E00E943E0568EC95
:1020F00070E080E090E00E94700585E090E00E9432
:102100003E0568EC70E080E090E00E94700585E09C
:1021100090E00E943E0568EC70E080E090E00E9454
:10212000700588E00E94AF0583EC91E063CFF999D8
:10213000FECF92BD81BDF89A992780B50895262FCC
:10214000F999FECF1FBA92BD81BD20BD0FB6F8949C
:10215000FA9AF99A0FBE01960895A1E21A2EAA1BC7
:10216000BB1BFD010DC0AA1FBB1FEE1FFF1FA21747
:10217000B307E407F50720F0A21BB30BE40BF50B44
:10218000661F771F881F991F1A9469F760957095CD
:10219000809590959B01AC01BD01CF010895052E5E
:1021A00097FB1EF400940E94E61057FD07D00E9492
:1021B000AD1007FC03D04EF40C94E61050954095FA
:1021C000309521953F4F4F4F5F4F089590958095E3
:1021D000709561957F4F8F4F9F4F08950E94FF101C
:1021E000A59F900DB49F900DA49F800D911D11246B
:1021F0000895EE0FFF1F0590F491E02D0994A29F22
:10220000B001B39FC001A39F700D811D1124911DCA
:10221000B29F700D811D1124911D0895F894FFCF78
:10222000FFCDEDC982EC00D832000000007B06DB58
:10223000050806E306390617062B06000000005CB9
:1022400009F90803070D0A0052656C6179206C6F6B
:10225000636B6564006E756D626572206F662061E8
:102260006C6C6F776564206361726473203A0072EE
:1022700065616420636172643A20002D2D2D2D2D3F
:102280002D2D2D2D2D2D2D2D2D2D2D2D2D2D2D2D7E
:102290002D2D2D2D2D2D2D2D0052656C6179207544
:0822A0006E6C6F636B65640056
:107800000C94343C0C94513C0C94513C0C94513CE1
:107810000C94513C0C94513C0C94513C0C94513CB4
:107820000C94513C0C94513C0C94513C0C94513CA4
:107830000C94513C0C94513C0C94513C0C94513C94
:107840000C94513C0C94513C0C94513C0C94513C84
:107850000C94513C0C94513C0C94513C0C94513C74
:107860000C94513C0C94513C11241FBECFEFD8E036
:10787000DEBFCDBF11E0A0E0B1E0ECE9FFE702C060
:1078800005900D92A230B107D9F712E0A2E0B1E065
:1078900001C01D92AD30B107E1F70E942D3D0C945F
:1078A000CC3F0C94003C982F959595959595959582
:1078B000905D8F708A307CF0282F295A8091C0000B
:1078C00085FFFCCF9093C6008091C00085FFFCCF60
:1078D0002093C6000895282F205DF0CF982F809127
:1078E000C00085FFFCCF9093C6000895EF92FF92F1
:1078F0000F931F93EE24FF2487018091C00087FD22
:1079000017C00894E11CF11C011D111D81E4E8164B
:1079100082E4F8068FE0080780E0180770F3E09132
:107920000401F091050109958091C00087FFE9CF1E
:107930008091C6001F910F91FF90EF9008950E94D3
:10794000763C982F8091C00085FFFCCF9093C600B5
:1079500091362CF490330CF09053892F089597555D
:10796000892F08951F930E949F3C182F0E949F3CCF
:107970001295107F810F1F9108951F93182F882350
:1079800021F00E94763C1150E1F71F9108951F935A
:10799000182F0E94763C803249F0809103018F5F5E
:1079A000809303018530C1F01F9108958091C0003C
:1079B00085FFFCCF84E18093C6008091C00085FFE5
:1079C000FCCF1093C6008091C00085FFFCCF80E102
:1079D0008093C6001F910895E0910401F091050184
:1079E00009951F9108950E94763C803241F0809164
:1079F00003018F5F80930301853081F008958091AA
:107A0000C00085FFFCCF84E18093C6008091C00058
:107A100085FFFCCF80E18093C6000895E0910401CA
:107A2000F09105010995089540E951E08823A1F0FE
:107A30002D9A28EE33E0FA013197F1F721503040CA
:107A4000D1F72D9828EE33E0FA013197F1F7215064
:107A50003040D1F7815061F708953F924F925F9285
:107A60006F927F928F929F92AF92BF92CF92DF924E
:107A7000EF92FF920F931F93CF93DF93000080E16B
:107A80008093C4001092C50088E18093C10086E015
:107A90008093C2005098589A259A81E00E94143D24
:107AA00024E1F22E9EE1E92E85E9D82E0FE0C02ECA
:107AB00010E1B12EAA24A394B1E49B2EA6E58A2E50
:107AC000F2E57F2EE0E26E2E79E4572E63E5462E36
:107AD00050E5352E0E94763C8033B1F18133B9F107
:107AE000803409F46FC0813409F476C0823409F41B
:107AF00085C0853409F488C0803531F1823521F1A3
:107B0000813511F1853509F485C0863509F48DC0BC
:107B1000843609F496C0843709F403C1853709F423
:107B200072C1863709F466C0809103018F5F80932C
:107B30000301853079F6E0910401F0910501099582
:107B40000E94763C803351F60E94F33CC3CF0E94E2
:107B5000763C803249F78091C00085FFFCCFF092DF
:107B6000C6008091C00085FFFCCF9092C600809136
:107B7000C00085FFFCCF8092C6008091C00085FFC9
:107B8000FCCF7092C6008091C00085FFFCCF609250
:107B9000C6008091C00085FFFCCF5092C600809146
:107BA000C00085FFFCCF4092C6008091C00085FFD9
:107BB000FCCF3092C6008091C00085FFFCCFB09210
:107BC000C60088CF0E94763C863808F4BDCF0E945C
:107BD000763C0E94F33C7ECF0E94763C803809F4CC
:107BE0009CC0813809F40BC1823809F43CC1883942
:107BF00009F48FC080E00E94C73C6CCF84E10E94F2
:107C0000BD3C0E94F33C66CF85E00E94BD3C0E94D3
:107C1000F33C60CF0E94763C809306010E94763C44
:107C2000809307010E94F33C55CF0E94763C80333D
:107C300009F41DC183E00E94BD3C80E00E94C73C66
:107C400049CF0E94763C809309020E94763C809343
:107C5000080280910C028E7F80930C020E94763C79
:107C6000853409F415C18091080290910902892B8D
:107C700089F000E010E00E94763CF801E85FFE4FDA
:107C800080830F5F1F4F80910802909109020817AF
:107C9000190788F30E94763C803209F045CF809125
:107CA0000C0280FF01C16091060170910701660F0F
:107CB000771F7093070160930601A0910802B091AD
:107CC00009021097C9F0E8E0F1E09B01AD014E0F09
:107CD0005F1FF999FECF32BD21BD819180BDFA9A17
:107CE000F99A2F5F3F4FE417F50799F76A0F7B1F4B
:107CF00070930701609306018091C00085FFFCCF5F
:107D0000F092C6008091C00085FFFCCFB092C60003
:107D1000E1CE83E00E94C73CDDCE82E00E94C73CFA
:107D2000D9CE0E94763C809309020E94763C8093D3
:107D300008028091060190910701880F991F909386
:107D40000701809306010E94763C853409F4A6C0A1
:107D500080910C028E7F80930C020E94763C8032D0
:107D600009F0B8CE8091C00085FFFCCFF092C6002C
:107D7000609108027091090261157105B9F140E046
:107D800050E080910C02A82FA170B82FB27011C0E2
:107D9000BB2309F45CC0E0910601F0910701319624
:107DA000F0930701E09306014F5F5F4F46175707B7
:107DB000E8F4AA2369F3F999FECF209106013091E6
:107DC000070132BD21BDF89A90B58091C00085FFB2
:107DD000FCCF9093C6002F5F3F4F30930701209355
:107DE00006014F5F5F4F4617570718F38091C00099
:107DF00085FDE5CE8091C00085FFF8CFE0CE81E023
:107E00000E94C73C67CE0E94763C803209F08CCE3F
:107E10008091C00085FFFCCFF092C6008091C00029
:107E200085FFFCCFE092C6008091C00085FFFCCFAB
:107E3000D092C6008091C00085FFFCCFC092C600E2
:107E40008091C00085FFFCCFB092C60043CEE09188
:107E50000601F091070194918091C00085FFFCCF4D
:107E60009093C6009CCF80E10E94C73C33CE0E9415
:107E7000763C0E94763C182F0E94763C112309F430
:107E800083C0113009F484C08FE00E94C73C22CE29
:107E900080910C02816080930C02E5CE80910C02EF
:107EA000816080930C0259CF809107018823880F4D
:107EB000880B8A2180930B02809106019091070123
:107EC000880F991F90930701809306018091080203
:107ED00080FF09C080910802909109020196909359
:107EE000090280930802F894F999FECF1127E091D6
:107EF0000601F0910701C8E0D1E08091080290915D
:107F00000902103091F40091570001700130D9F34B
:107F100003E000935700E89500915700017001308D
:107F2000D9F301E100935700E89509901990009169
:107F3000570001700130D9F301E000935700E89534
:107F40001395103498F011270091570001700130FB
:107F5000D9F305E000935700E895009157000170B0
:107F60000130D9F301E100935700E895329602976A
:107F700009F0C7CF103011F00296E5CF112480919F
:107F8000C00085FFB9CEBCCE8EE10E94C73CA2CD19
:0E7F900085E90E94C73C9ECDF894FFCF80008B
:00000001FF
